{
  "_format": "hh-sol-artifact-1",
  "contractName": "Ratemyclass",
  "sourceName": "contracts/Ratemyclass.sol",
  "abi": [
    {
      "inputs": [],
      "stateMutability": "nonpayable",
      "type": "constructor"
    },
    {
      "anonymous": false,
      "inputs": [
        {
          "indexed": true,
          "internalType": "address",
          "name": "owner",
          "type": "address"
        },
        {
          "indexed": true,
          "internalType": "address",
          "name": "approved",
          "type": "address"
        },
        {
          "indexed": true,
          "internalType": "uint256",
          "name": "tokenId",
          "type": "uint256"
        }
      ],
      "name": "Approval",
      "type": "event"
    },
    {
      "anonymous": false,
      "inputs": [
        {
          "indexed": true,
          "internalType": "address",
          "name": "owner",
          "type": "address"
        },
        {
          "indexed": true,
          "internalType": "address",
          "name": "operator",
          "type": "address"
        },
        {
          "indexed": false,
          "internalType": "bool",
          "name": "approved",
          "type": "bool"
        }
      ],
      "name": "ApprovalForAll",
      "type": "event"
    },
    {
      "anonymous": false,
      "inputs": [
        {
          "indexed": false,
          "internalType": "uint256",
          "name": "id",
          "type": "uint256"
        },
        {
          "indexed": false,
          "internalType": "string",
          "name": "cid",
          "type": "string"
        },
        {
          "indexed": false,
          "internalType": "uint256",
          "name": "targetAmmount",
          "type": "uint256"
        },
        {
          "indexed": false,
          "internalType": "address",
          "name": "organizer",
          "type": "address"
        }
      ],
      "name": "GroupCreated",
      "type": "event"
    },
    {
      "anonymous": false,
      "inputs": [
        {
          "indexed": true,
          "internalType": "address",
          "name": "from",
          "type": "address"
        },
        {
          "indexed": true,
          "internalType": "address",
          "name": "to",
          "type": "address"
        },
        {
          "indexed": true,
          "internalType": "uint256",
          "name": "tokenId",
          "type": "uint256"
        }
      ],
      "name": "Transfer",
      "type": "event"
    },
    {
      "anonymous": false,
      "inputs": [
        {
          "indexed": false,
          "internalType": "uint256",
          "name": "id",
          "type": "uint256"
        },
        {
          "indexed": false,
          "internalType": "string",
          "name": "cid",
          "type": "string"
        },
        {
          "indexed": false,
          "internalType": "address",
          "name": "author",
          "type": "address"
        }
      ],
      "name": "commentCreated",
      "type": "event"
    },
    {
      "inputs": [],
      "name": "_totalClasses",
      "outputs": [
        {
          "internalType": "uint256",
          "name": "",
          "type": "uint256"
        }
      ],
      "stateMutability": "view",
      "type": "function"
    },
    {
      "inputs": [],
      "name": "_totalNFTs",
      "outputs": [
        {
          "internalType": "uint256",
          "name": "_value",
          "type": "uint256"
        }
      ],
      "stateMutability": "view",
      "type": "function"
    },
    {
      "inputs": [
        {
          "internalType": "address",
          "name": "to",
          "type": "address"
        },
        {
          "internalType": "uint256",
          "name": "tokenId",
          "type": "uint256"
        }
      ],
      "name": "approve",
      "outputs": [],
      "stateMutability": "nonpayable",
      "type": "function"
    },
    {
      "inputs": [
        {
          "internalType": "address",
          "name": "owner",
          "type": "address"
        }
      ],
      "name": "balanceOf",
      "outputs": [
        {
          "internalType": "uint256",
          "name": "",
          "type": "uint256"
        }
      ],
      "stateMutability": "view",
      "type": "function"
    },
    {
      "inputs": [
        {
          "internalType": "string",
          "name": "_cid",
          "type": "string"
        },
        {
          "internalType": "uint256",
          "name": "_targetAmmount",
          "type": "uint256"
        }
      ],
      "name": "createClass",
      "outputs": [],
      "stateMutability": "nonpayable",
      "type": "function"
    },
    {
      "inputs": [
        {
          "internalType": "string",
          "name": "_cid",
          "type": "string"
        },
        {
          "internalType": "uint256",
          "name": "classId",
          "type": "uint256"
        }
      ],
      "name": "createReview",
      "outputs": [],
      "stateMutability": "nonpayable",
      "type": "function"
    },
    {
      "inputs": [
        {
          "internalType": "uint256",
          "name": "_donationId",
          "type": "uint256"
        },
        {
          "internalType": "uint256",
          "name": "_donationAmmount",
          "type": "uint256"
        }
      ],
      "name": "donate",
      "outputs": [],
      "stateMutability": "nonpayable",
      "type": "function"
    },
    {
      "inputs": [],
      "name": "getAllGroups",
      "outputs": [
        {
          "components": [
            {
              "internalType": "uint256",
              "name": "id",
              "type": "uint256"
            },
            {
              "internalType": "string",
              "name": "cid",
              "type": "string"
            },
            {
              "internalType": "uint256",
              "name": "targetAmmount",
              "type": "uint256"
            },
            {
              "internalType": "uint256",
              "name": "totalDonations",
              "type": "uint256"
            },
            {
              "internalType": "address",
              "name": "organizer",
              "type": "address"
            },
            {
              "internalType": "string[]",
              "name": "reviews",
              "type": "string[]"
            }
          ],
          "internalType": "struct Ratemyclass.ClassesBluePrint[]",
          "name": "",
          "type": "tuple[]"
        }
      ],
      "stateMutability": "view",
      "type": "function"
    },
    {
      "inputs": [
        {
          "internalType": "uint256",
          "name": "tokenId",
          "type": "uint256"
        }
      ],
      "name": "getApproved",
      "outputs": [
        {
          "internalType": "address",
          "name": "",
          "type": "address"
        }
      ],
      "stateMutability": "view",
      "type": "function"
    },
    {
      "inputs": [
        {
          "internalType": "address",
          "name": "owner",
          "type": "address"
        },
        {
          "internalType": "address",
          "name": "operator",
          "type": "address"
        }
      ],
      "name": "isApprovedForAll",
      "outputs": [
        {
          "internalType": "bool",
          "name": "",
          "type": "bool"
        }
      ],
      "stateMutability": "view",
      "type": "function"
    },
    {
      "inputs": [
        {
          "internalType": "uint256",
          "name": "",
          "type": "uint256"
        }
      ],
      "name": "listOfClasses",
      "outputs": [
        {
          "internalType": "uint256",
          "name": "id",
          "type": "uint256"
        },
        {
          "internalType": "string",
          "name": "cid",
          "type": "string"
        },
        {
          "internalType": "uint256",
          "name": "targetAmmount",
          "type": "uint256"
        },
        {
          "internalType": "uint256",
          "name": "totalDonations",
          "type": "uint256"
        },
        {
          "internalType": "address",
          "name": "organizer",
          "type": "address"
        }
      ],
      "stateMutability": "view",
      "type": "function"
    },
    {
      "inputs": [
        {
          "internalType": "uint256",
          "name": "",
          "type": "uint256"
        }
      ],
      "name": "listOfComments",
      "outputs": [
        {
          "internalType": "uint256",
          "name": "id",
          "type": "uint256"
        },
        {
          "internalType": "string",
          "name": "cid",
          "type": "string"
        },
        {
          "internalType": "address",
          "name": "author",
          "type": "address"
        }
      ],
      "stateMutability": "view",
      "type": "function"
    },
    {
      "inputs": [],
      "name": "name",
      "outputs": [
        {
          "internalType": "string",
          "name": "",
          "type": "string"
        }
      ],
      "stateMutability": "view",
      "type": "function"
    },
    {
      "inputs": [
        {
          "internalType": "uint256",
          "name": "tokenId",
          "type": "uint256"
        }
      ],
      "name": "ownerOf",
      "outputs": [
        {
          "internalType": "address",
          "name": "",
          "type": "address"
        }
      ],
      "stateMutability": "view",
      "type": "function"
    },
    {
      "inputs": [
        {
          "internalType": "address",
          "name": "from",
          "type": "address"
        },
        {
          "internalType": "address",
          "name": "to",
          "type": "address"
        },
        {
          "internalType": "uint256",
          "name": "tokenId",
          "type": "uint256"
        }
      ],
      "name": "safeTransferFrom",
      "outputs": [],
      "stateMutability": "nonpayable",
      "type": "function"
    },
    {
      "inputs": [
        {
          "internalType": "address",
          "name": "from",
          "type": "address"
        },
        {
          "internalType": "address",
          "name": "to",
          "type": "address"
        },
        {
          "internalType": "uint256",
          "name": "tokenId",
          "type": "uint256"
        },
        {
          "internalType": "bytes",
          "name": "data",
          "type": "bytes"
        }
      ],
      "name": "safeTransferFrom",
      "outputs": [],
      "stateMutability": "nonpayable",
      "type": "function"
    },
    {
      "inputs": [
        {
          "internalType": "address",
          "name": "operator",
          "type": "address"
        },
        {
          "internalType": "bool",
          "name": "approved",
          "type": "bool"
        }
      ],
      "name": "setApprovalForAll",
      "outputs": [],
      "stateMutability": "nonpayable",
      "type": "function"
    },
    {
      "inputs": [
        {
          "internalType": "bytes4",
          "name": "interfaceId",
          "type": "bytes4"
        }
      ],
      "name": "supportsInterface",
      "outputs": [
        {
          "internalType": "bool",
          "name": "",
          "type": "bool"
        }
      ],
      "stateMutability": "view",
      "type": "function"
    },
    {
      "inputs": [],
      "name": "symbol",
      "outputs": [
        {
          "internalType": "string",
          "name": "",
          "type": "string"
        }
      ],
      "stateMutability": "view",
      "type": "function"
    },
    {
      "inputs": [
        {
          "internalType": "uint256",
          "name": "tokenId",
          "type": "uint256"
        }
      ],
      "name": "tokenURI",
      "outputs": [
        {
          "internalType": "string",
          "name": "",
          "type": "string"
        }
      ],
      "stateMutability": "view",
      "type": "function"
    },
    {
      "inputs": [
        {
          "internalType": "address",
          "name": "from",
          "type": "address"
        },
        {
          "internalType": "address",
          "name": "to",
          "type": "address"
        },
        {
          "internalType": "uint256",
          "name": "tokenId",
          "type": "uint256"
        }
      ],
      "name": "transferFrom",
      "outputs": [],
      "stateMutability": "nonpayable",
      "type": "function"
    }
  ],
  "bytecode": "0x608060405260006008553480156200001657600080fd5b506040518060400160405280600b81526020017f526174656d79436c6173730000000000000000000000000000000000000000008152506040518060400160405280600381526020017f524d43000000000000000000000000000000000000000000000000000000000081525081600090805190602001906200009b929190620000bd565b508060019080519060200190620000b4929190620000bd565b505050620001d2565b828054620000cb906200019c565b90600052602060002090601f016020900481019282620000ef57600085556200013b565b82601f106200010a57805160ff19168380011785556200013b565b828001600101855582156200013b579182015b828111156200013a5782518255916020019190600101906200011d565b5b5090506200014a91906200014e565b5090565b5b80821115620001695760008160009055506001016200014f565b5090565b7f4e487b7100000000000000000000000000000000000000000000000000000000600052602260045260246000fd5b60006002820490506001821680620001b557607f821691505b60208210811415620001cc57620001cb6200016d565b5b50919050565b6131e880620001e26000396000f3fe608060405234801561001057600080fd5b50600436106101375760003560e01c806370a08231116100b8578063b88d4fde1161007c578063b88d4fde14610338578063bbac337b14610354578063c4373cd314610372578063c87b56dd146103a4578063cb056ed3146103d4578063e985e9c51461040857610137565b806370a082311461029457806395d89b41146102c45780639ca699dd146102e2578063a22cb465146102fe578063ab09048c1461031a57610137565b806321cd3cae116100ff57806321cd3cae146101f257806323b872dd1461021057806342842e0e1461022c5780634852a212146102485780636352211e1461026457610137565b806301ffc9a71461013c57806306fdde031461016c578063081812fc1461018a578063095ea7b3146101ba5780630cdd53f6146101d6575b600080fd5b61015660048036038101906101519190611f6e565b610438565b6040516101639190611fb6565b60405180910390f35b61017461051a565b604051610181919061206a565b60405180910390f35b6101a4600480360381019061019f91906120c2565b6105ac565b6040516101b19190612130565b60405180910390f35b6101d460048036038101906101cf9190612177565b6105f2565b005b6101f060048036038101906101eb91906121b7565b61070a565b005b6101fa610741565b6040516102079190612473565b60405180910390f35b61022a60048036038101906102259190612495565b6109e6565b005b61024660048036038101906102419190612495565b610a46565b005b610262600480360381019061025d919061254d565b610a66565b005b61027e600480360381019061027991906120c2565b610c53565b60405161028b9190612130565b60405180910390f35b6102ae60048036038101906102a991906125ad565b610d05565b6040516102bb91906125e9565b60405180910390f35b6102cc610dbd565b6040516102d9919061206a565b60405180910390f35b6102fc60048036038101906102f7919061254d565b610e4f565b005b61031860048036038101906103139190612630565b610eac565b005b610322610ec2565b60405161032f91906125e9565b60405180910390f35b610352600480360381019061034d91906127a0565b610ece565b005b61035c610f30565b60405161036991906125e9565b60405180910390f35b61038c600480360381019061038791906120c2565b610f36565b60405161039b93929190612823565b60405180910390f35b6103be60048036038101906103b991906120c2565b611008565b6040516103cb919061206a565b60405180910390f35b6103ee60048036038101906103e991906120c2565b61111b565b6040516103ff959493929190612861565b60405180910390f35b610422600480360381019061041d91906128bb565b6111f9565b60405161042f9190611fb6565b60405180910390f35b60007f80ac58cd000000000000000000000000000000000000000000000000000000007bffffffffffffffffffffffffffffffffffffffffffffffffffffffff1916827bffffffffffffffffffffffffffffffffffffffffffffffffffffffff1916148061050357507f5b5e139f000000000000000000000000000000000000000000000000000000007bffffffffffffffffffffffffffffffffffffffffffffffffffffffff1916827bffffffffffffffffffffffffffffffffffffffffffffffffffffffff1916145b8061051357506105128261128d565b5b9050919050565b6060600080546105299061292a565b80601f01602080910402602001604051908101604052809291908181526020018280546105559061292a565b80156105a25780601f10610577576101008083540402835291602001916105a2565b820191906000526020600020905b81548152906001019060200180831161058557829003601f168201915b5050505050905090565b60006105b7826112f7565b6004600083815260200190815260200160002060009054906101000a900473ffffffffffffffffffffffffffffffffffffffff169050919050565b60006105fd82610c53565b90508073ffffffffffffffffffffffffffffffffffffffff168373ffffffffffffffffffffffffffffffffffffffff16141561066e576040517f08c379a0000000000000000000000000000000000000000000000000000000008152600401610665906129ce565b60405180910390fd5b8073ffffffffffffffffffffffffffffffffffffffff1661068d611342565b73ffffffffffffffffffffffffffffffffffffffff1614806106bc57506106bb816106b6611342565b6111f9565b5b6106fb576040517f08c379a00000000000000000000000000000000000000000000000000000000081526004016106f290612a60565b60405180910390fd5b610705838361134a565b505050565b6000600960008481526020019081526020016000209050818160030160008282546107359190612aaf565b92505081905550505050565b6060600060085467ffffffffffffffff81111561076157610760612675565b5b60405190808252806020026020018201604052801561079a57816020015b610787611cc9565b81526020019060019003908161077f5790505b50905060005b6008548110156109de576000600960008381526020019081526020016000209050806040518060c0016040529081600082015481526020016001820180546107e79061292a565b80601f01602080910402602001604051908101604052809291908181526020018280546108139061292a565b80156108605780601f1061083557610100808354040283529160200191610860565b820191906000526020600020905b81548152906001019060200180831161084357829003601f168201915b5050505050815260200160028201548152602001600382015481526020016004820160009054906101000a900473ffffffffffffffffffffffffffffffffffffffff1673ffffffffffffffffffffffffffffffffffffffff1673ffffffffffffffffffffffffffffffffffffffff16815260200160058201805480602002602001604051908101604052809291908181526020016000905b828210156109a45783829060005260206000200180546109179061292a565b80601f01602080910402602001604051908101604052809291908181526020018280546109439061292a565b80156109905780601f1061096557610100808354040283529160200191610990565b820191906000526020600020905b81548152906001019060200180831161097357829003601f168201915b5050505050815260200190600101906108f8565b50505050815250508383815181106109bf576109be612b05565b5b60200260200101819052505080806109d690612b34565b9150506107a0565b508091505090565b6109f76109f1611342565b82611403565b610a36576040517f08c379a0000000000000000000000000000000000000000000000000000000008152600401610a2d90612bef565b60405180910390fd5b610a41838383611498565b505050565b610a6183838360405180602001604052806000815250610ece565b505050565b6040518060c00160405280600854815260200184848080601f016020809104026020016040519081016040528093929190818152602001838380828437600081840152601f19601f820116905080830192505050505050508152602001828152602001600081526020013373ffffffffffffffffffffffffffffffffffffffff168152602001600067ffffffffffffffff811115610b0757610b06612675565b5b604051908082528060200260200182016040528015610b3a57816020015b6060815260200190600190039081610b255790505b50815250600960006008548152602001908152602001600020600082015181600001556020820151816001019080519060200190610b79929190611d15565b50604082015181600201556060820151816003015560808201518160040160006101000a81548173ffffffffffffffffffffffffffffffffffffffff021916908373ffffffffffffffffffffffffffffffffffffffff16021790555060a0820151816005019080519060200190610bf1929190611d9b565b509050507f4b662a1faa1a19ddaa13c79132f9e6be0489da8515a957ad3decf1c7fec9a4c460085484848433604051610c2e959493929190612c3c565b60405180910390a160086000815480929190610c4990612b34565b9190505550505050565b6000806002600084815260200190815260200160002060009054906101000a900473ffffffffffffffffffffffffffffffffffffffff169050600073ffffffffffffffffffffffffffffffffffffffff168173ffffffffffffffffffffffffffffffffffffffff161415610cfc576040517f08c379a0000000000000000000000000000000000000000000000000000000008152600401610cf390612cd6565b60405180910390fd5b80915050919050565b60008073ffffffffffffffffffffffffffffffffffffffff168273ffffffffffffffffffffffffffffffffffffffff161415610d76576040517f08c379a0000000000000000000000000000000000000000000000000000000008152600401610d6d90612d68565b60405180910390fd5b600360008373ffffffffffffffffffffffffffffffffffffffff1673ffffffffffffffffffffffffffffffffffffffff168152602001908152602001600020549050919050565b606060018054610dcc9061292a565b80601f0160208091040260200160405190810160405280929190818152602001828054610df89061292a565b8015610e455780601f10610e1a57610100808354040283529160200191610e45565b820191906000526020600020905b815481529060010190602001808311610e2857829003601f168201915b5050505050905090565b600060096000838152602001908152602001600020905080600501848490918060018154018082558091505060019003906000526020600020016000909192909192909192909192509190610ea5929190611dfb565b5050505050565b610ebe610eb7611342565b83836116ff565b5050565b60078060000154905081565b610edf610ed9611342565b83611403565b610f1e576040517f08c379a0000000000000000000000000000000000000000000000000000000008152600401610f1590612bef565b60405180910390fd5b610f2a8484848461186c565b50505050565b60085481565b600a602052806000526040600020600091509050806000015490806001018054610f5f9061292a565b80601f0160208091040260200160405190810160405280929190818152602001828054610f8b9061292a565b8015610fd85780601f10610fad57610100808354040283529160200191610fd8565b820191906000526020600020905b815481529060010190602001808311610fbb57829003601f168201915b5050505050908060020160009054906101000a900473ffffffffffffffffffffffffffffffffffffffff16905083565b6060611013826112f7565b60006006600084815260200190815260200160002080546110339061292a565b80601f016020809104026020016040519081016040528092919081815260200182805461105f9061292a565b80156110ac5780601f10611081576101008083540402835291602001916110ac565b820191906000526020600020905b81548152906001019060200180831161108f57829003601f168201915b5050505050905060006110bd6118c8565b90506000815114156110d3578192505050611116565b6000825111156111085780826040516020016110f0929190612dc4565b60405160208183030381529060405292505050611116565b611111846118df565b925050505b919050565b60096020528060005260406000206000915090508060000154908060010180546111449061292a565b80601f01602080910402602001604051908101604052809291908181526020018280546111709061292a565b80156111bd5780601f10611192576101008083540402835291602001916111bd565b820191906000526020600020905b8154815290600101906020018083116111a057829003601f168201915b5050505050908060020154908060030154908060040160009054906101000a900473ffffffffffffffffffffffffffffffffffffffff16905085565b6000600560008473ffffffffffffffffffffffffffffffffffffffff1673ffffffffffffffffffffffffffffffffffffffff16815260200190815260200160002060008373ffffffffffffffffffffffffffffffffffffffff1673ffffffffffffffffffffffffffffffffffffffff16815260200190815260200160002060009054906101000a900460ff16905092915050565b60007f01ffc9a7000000000000000000000000000000000000000000000000000000007bffffffffffffffffffffffffffffffffffffffffffffffffffffffff1916827bffffffffffffffffffffffffffffffffffffffffffffffffffffffff1916149050919050565b61130081611947565b61133f576040517f08c379a000000000000000000000000000000000000000000000000000000000815260040161133690612cd6565b60405180910390fd5b50565b600033905090565b816004600083815260200190815260200160002060006101000a81548173ffffffffffffffffffffffffffffffffffffffff021916908373ffffffffffffffffffffffffffffffffffffffff160217905550808273ffffffffffffffffffffffffffffffffffffffff166113bd83610c53565b73ffffffffffffffffffffffffffffffffffffffff167f8c5be1e5ebec7d5bd14f71427d1e84f3dd0314c0f7b2291e5b200ac8c7c3b92560405160405180910390a45050565b60008061140f83610c53565b90508073ffffffffffffffffffffffffffffffffffffffff168473ffffffffffffffffffffffffffffffffffffffff161480611451575061145081856111f9565b5b8061148f57508373ffffffffffffffffffffffffffffffffffffffff16611477846105ac565b73ffffffffffffffffffffffffffffffffffffffff16145b91505092915050565b8273ffffffffffffffffffffffffffffffffffffffff166114b882610c53565b73ffffffffffffffffffffffffffffffffffffffff161461150e576040517f08c379a000000000000000000000000000000000000000000000000000000000815260040161150590612e5a565b60405180910390fd5b600073ffffffffffffffffffffffffffffffffffffffff168273ffffffffffffffffffffffffffffffffffffffff16141561157e576040517f08c379a000000000000000000000000000000000000000000000000000000000815260040161157590612eec565b60405180910390fd5b6115898383836119b3565b61159460008261134a565b6001600360008573ffffffffffffffffffffffffffffffffffffffff1673ffffffffffffffffffffffffffffffffffffffff16815260200190815260200160002060008282546115e49190612f0c565b925050819055506001600360008473ffffffffffffffffffffffffffffffffffffffff1673ffffffffffffffffffffffffffffffffffffffff168152602001908152602001600020600082825461163b9190612aaf565b92505081905550816002600083815260200190815260200160002060006101000a81548173ffffffffffffffffffffffffffffffffffffffff021916908373ffffffffffffffffffffffffffffffffffffffff160217905550808273ffffffffffffffffffffffffffffffffffffffff168473ffffffffffffffffffffffffffffffffffffffff167fddf252ad1be2c89b69c2b068fc378daa952ba7f163c4a11628f55a4df523b3ef60405160405180910390a46116fa8383836119b8565b505050565b8173ffffffffffffffffffffffffffffffffffffffff168373ffffffffffffffffffffffffffffffffffffffff16141561176e576040517f08c379a000000000000000000000000000000000000000000000000000000000815260040161176590612f8c565b60405180910390fd5b80600560008573ffffffffffffffffffffffffffffffffffffffff1673ffffffffffffffffffffffffffffffffffffffff16815260200190815260200160002060008473ffffffffffffffffffffffffffffffffffffffff1673ffffffffffffffffffffffffffffffffffffffff16815260200190815260200160002060006101000a81548160ff0219169083151502179055508173ffffffffffffffffffffffffffffffffffffffff168373ffffffffffffffffffffffffffffffffffffffff167f17307eab39ab6107e8899845ad3d59bd9653f200f220920489ca2b5937696c318360405161185f9190611fb6565b60405180910390a3505050565b611877848484611498565b611883848484846119bd565b6118c2576040517f08c379a00000000000000000000000000000000000000000000000000000000081526004016118b99061301e565b60405180910390fd5b50505050565b606060405180602001604052806000815250905090565b60606118ea826112f7565b60006118f46118c8565b90506000815111611914576040518060200160405280600081525061193f565b8061191e84611b45565b60405160200161192f929190612dc4565b6040516020818303038152906040525b915050919050565b60008073ffffffffffffffffffffffffffffffffffffffff166002600084815260200190815260200160002060009054906101000a900473ffffffffffffffffffffffffffffffffffffffff1673ffffffffffffffffffffffffffffffffffffffff1614159050919050565b505050565b505050565b60006119de8473ffffffffffffffffffffffffffffffffffffffff16611ca6565b15611b38578373ffffffffffffffffffffffffffffffffffffffff1663150b7a02611a07611342565b8786866040518563ffffffff1660e01b8152600401611a299493929190613093565b6020604051808303816000875af1925050508015611a6557506040513d601f19601f82011682018060405250810190611a6291906130f4565b60015b611ae8573d8060008114611a95576040519150601f19603f3d011682016040523d82523d6000602084013e611a9a565b606091505b50600081511415611ae0576040517f08c379a0000000000000000000000000000000000000000000000000000000008152600401611ad79061301e565b60405180910390fd5b805181602001fd5b63150b7a0260e01b7bffffffffffffffffffffffffffffffffffffffffffffffffffffffff1916817bffffffffffffffffffffffffffffffffffffffffffffffffffffffff191614915050611b3d565b600190505b949350505050565b60606000821415611b8d576040518060400160405280600181526020017f30000000000000000000000000000000000000000000000000000000000000008152509050611ca1565b600082905060005b60008214611bbf578080611ba890612b34565b915050600a82611bb89190613150565b9150611b95565b60008167ffffffffffffffff811115611bdb57611bda612675565b5b6040519080825280601f01601f191660200182016040528015611c0d5781602001600182028036833780820191505090505b5090505b60008514611c9a57600182611c269190612f0c565b9150600a85611c359190613181565b6030611c419190612aaf565b60f81b818381518110611c5757611c56612b05565b5b60200101907effffffffffffffffffffffffffffffffffffffffffffffffffffffffffffff1916908160001a905350600a85611c939190613150565b9450611c11565b8093505050505b919050565b6000808273ffffffffffffffffffffffffffffffffffffffff163b119050919050565b6040518060c0016040528060008152602001606081526020016000815260200160008152602001600073ffffffffffffffffffffffffffffffffffffffff168152602001606081525090565b828054611d219061292a565b90600052602060002090601f016020900481019282611d435760008555611d8a565b82601f10611d5c57805160ff1916838001178555611d8a565b82800160010185558215611d8a579182015b82811115611d89578251825591602001919060010190611d6e565b5b509050611d979190611e81565b5090565b828054828255906000526020600020908101928215611dea579160200282015b82811115611de9578251829080519060200190611dd9929190611d15565b5091602001919060010190611dbb565b5b509050611df79190611e9e565b5090565b828054611e079061292a565b90600052602060002090601f016020900481019282611e295760008555611e70565b82601f10611e4257803560ff1916838001178555611e70565b82800160010185558215611e70579182015b82811115611e6f578235825591602001919060010190611e54565b5b509050611e7d9190611e81565b5090565b5b80821115611e9a576000816000905550600101611e82565b5090565b5b80821115611ebe5760008181611eb59190611ec2565b50600101611e9f565b5090565b508054611ece9061292a565b6000825580601f10611ee05750611eff565b601f016020900490600052602060002090810190611efe9190611e81565b5b50565b6000604051905090565b600080fd5b600080fd5b60007fffffffff0000000000000000000000000000000000000000000000000000000082169050919050565b611f4b81611f16565b8114611f5657600080fd5b50565b600081359050611f6881611f42565b92915050565b600060208284031215611f8457611f83611f0c565b5b6000611f9284828501611f59565b91505092915050565b60008115159050919050565b611fb081611f9b565b82525050565b6000602082019050611fcb6000830184611fa7565b92915050565b600081519050919050565b600082825260208201905092915050565b60005b8381101561200b578082015181840152602081019050611ff0565b8381111561201a576000848401525b50505050565b6000601f19601f8301169050919050565b600061203c82611fd1565b6120468185611fdc565b9350612056818560208601611fed565b61205f81612020565b840191505092915050565b600060208201905081810360008301526120848184612031565b905092915050565b6000819050919050565b61209f8161208c565b81146120aa57600080fd5b50565b6000813590506120bc81612096565b92915050565b6000602082840312156120d8576120d7611f0c565b5b60006120e6848285016120ad565b91505092915050565b600073ffffffffffffffffffffffffffffffffffffffff82169050919050565b600061211a826120ef565b9050919050565b61212a8161210f565b82525050565b60006020820190506121456000830184612121565b92915050565b6121548161210f565b811461215f57600080fd5b50565b6000813590506121718161214b565b92915050565b6000806040838503121561218e5761218d611f0c565b5b600061219c85828601612162565b92505060206121ad858286016120ad565b9150509250929050565b600080604083850312156121ce576121cd611f0c565b5b60006121dc858286016120ad565b92505060206121ed858286016120ad565b9150509250929050565b600081519050919050565b600082825260208201905092915050565b6000819050602082019050919050565b61222c8161208c565b82525050565b600082825260208201905092915050565b600061224e82611fd1565b6122588185612232565b9350612268818560208601611fed565b61227181612020565b840191505092915050565b6122858161210f565b82525050565b600081519050919050565b600082825260208201905092915050565b6000819050602082019050919050565b60006122c38383612243565b905092915050565b6000602082019050919050565b60006122e38261228b565b6122ed8185612296565b9350836020820285016122ff856122a7565b8060005b8581101561233b578484038952815161231c85826122b7565b9450612327836122cb565b925060208a01995050600181019050612303565b50829750879550505050505092915050565b600060c0830160008301516123656000860182612223565b506020830151848203602086015261237d8282612243565b91505060408301516123926040860182612223565b5060608301516123a56060860182612223565b5060808301516123b8608086018261227c565b5060a083015184820360a08601526123d082826122d8565b9150508091505092915050565b60006123e9838361234d565b905092915050565b6000602082019050919050565b6000612409826121f7565b6124138185612202565b93508360208202850161242585612213565b8060005b85811015612461578484038952815161244285826123dd565b945061244d836123f1565b925060208a01995050600181019050612429565b50829750879550505050505092915050565b6000602082019050818103600083015261248d81846123fe565b905092915050565b6000806000606084860312156124ae576124ad611f0c565b5b60006124bc86828701612162565b93505060206124cd86828701612162565b92505060406124de868287016120ad565b9150509250925092565b600080fd5b600080fd5b600080fd5b60008083601f84011261250d5761250c6124e8565b5b8235905067ffffffffffffffff81111561252a576125296124ed565b5b602083019150836001820283011115612546576125456124f2565b5b9250929050565b60008060006040848603121561256657612565611f0c565b5b600084013567ffffffffffffffff81111561258457612583611f11565b5b612590868287016124f7565b935093505060206125a3868287016120ad565b9150509250925092565b6000602082840312156125c3576125c2611f0c565b5b60006125d184828501612162565b91505092915050565b6125e38161208c565b82525050565b60006020820190506125fe60008301846125da565b92915050565b61260d81611f9b565b811461261857600080fd5b50565b60008135905061262a81612604565b92915050565b6000806040838503121561264757612646611f0c565b5b600061265585828601612162565b92505060206126668582860161261b565b9150509250929050565b600080fd5b7f4e487b7100000000000000000000000000000000000000000000000000000000600052604160045260246000fd5b6126ad82612020565b810181811067ffffffffffffffff821117156126cc576126cb612675565b5b80604052505050565b60006126df611f02565b90506126eb82826126a4565b919050565b600067ffffffffffffffff82111561270b5761270a612675565b5b61271482612020565b9050602081019050919050565b82818337600083830152505050565b600061274361273e846126f0565b6126d5565b90508281526020810184848401111561275f5761275e612670565b5b61276a848285612721565b509392505050565b600082601f830112612787576127866124e8565b5b8135612797848260208601612730565b91505092915050565b600080600080608085870312156127ba576127b9611f0c565b5b60006127c887828801612162565b94505060206127d987828801612162565b93505060406127ea878288016120ad565b925050606085013567ffffffffffffffff81111561280b5761280a611f11565b5b61281787828801612772565b91505092959194509250565b600060608201905061283860008301866125da565b818103602083015261284a8185612031565b90506128596040830184612121565b949350505050565b600060a08201905061287660008301886125da565b81810360208301526128888187612031565b905061289760408301866125da565b6128a460608301856125da565b6128b16080830184612121565b9695505050505050565b600080604083850312156128d2576128d1611f0c565b5b60006128e085828601612162565b92505060206128f185828601612162565b9150509250929050565b7f4e487b7100000000000000000000000000000000000000000000000000000000600052602260045260246000fd5b6000600282049050600182168061294257607f821691505b60208210811415612956576129556128fb565b5b50919050565b7f4552433732313a20617070726f76616c20746f2063757272656e74206f776e6560008201527f7200000000000000000000000000000000000000000000000000000000000000602082015250565b60006129b8602183611fdc565b91506129c38261295c565b604082019050919050565b600060208201905081810360008301526129e7816129ab565b9050919050565b7f4552433732313a20617070726f76652063616c6c6572206973206e6f7420746f60008201527f6b656e206f776e6572206e6f7220617070726f76656420666f7220616c6c0000602082015250565b6000612a4a603e83611fdc565b9150612a55826129ee565b604082019050919050565b60006020820190508181036000830152612a7981612a3d565b9050919050565b7f4e487b7100000000000000000000000000000000000000000000000000000000600052601160045260246000fd5b6000612aba8261208c565b9150612ac58361208c565b9250827fffffffffffffffffffffffffffffffffffffffffffffffffffffffffffffffff03821115612afa57612af9612a80565b5b828201905092915050565b7f4e487b7100000000000000000000000000000000000000000000000000000000600052603260045260246000fd5b6000612b3f8261208c565b91507fffffffffffffffffffffffffffffffffffffffffffffffffffffffffffffffff821415612b7257612b71612a80565b5b600182019050919050565b7f4552433732313a2063616c6c6572206973206e6f7420746f6b656e206f776e6560008201527f72206e6f7220617070726f766564000000000000000000000000000000000000602082015250565b6000612bd9602e83611fdc565b9150612be482612b7d565b604082019050919050565b60006020820190508181036000830152612c0881612bcc565b9050919050565b6000612c1b8385611fdc565b9350612c28838584612721565b612c3183612020565b840190509392505050565b6000608082019050612c5160008301886125da565b8181036020830152612c64818688612c0f565b9050612c7360408301856125da565b612c806060830184612121565b9695505050505050565b7f4552433732313a20696e76616c696420746f6b656e2049440000000000000000600082015250565b6000612cc0601883611fdc565b9150612ccb82612c8a565b602082019050919050565b60006020820190508181036000830152612cef81612cb3565b9050919050565b7f4552433732313a2061646472657373207a65726f206973206e6f74206120766160008201527f6c6964206f776e65720000000000000000000000000000000000000000000000602082015250565b6000612d52602983611fdc565b9150612d5d82612cf6565b604082019050919050565b60006020820190508181036000830152612d8181612d45565b9050919050565b600081905092915050565b6000612d9e82611fd1565b612da88185612d88565b9350612db8818560208601611fed565b80840191505092915050565b6000612dd08285612d93565b9150612ddc8284612d93565b91508190509392505050565b7f4552433732313a207472616e736665722066726f6d20696e636f72726563742060008201527f6f776e6572000000000000000000000000000000000000000000000000000000602082015250565b6000612e44602583611fdc565b9150612e4f82612de8565b604082019050919050565b60006020820190508181036000830152612e7381612e37565b9050919050565b7f4552433732313a207472616e7366657220746f20746865207a65726f2061646460008201527f7265737300000000000000000000000000000000000000000000000000000000602082015250565b6000612ed6602483611fdc565b9150612ee182612e7a565b604082019050919050565b60006020820190508181036000830152612f0581612ec9565b9050919050565b6000612f178261208c565b9150612f228361208c565b925082821015612f3557612f34612a80565b5b828203905092915050565b7f4552433732313a20617070726f766520746f2063616c6c657200000000000000600082015250565b6000612f76601983611fdc565b9150612f8182612f40565b602082019050919050565b60006020820190508181036000830152612fa581612f69565b9050919050565b7f4552433732313a207472616e7366657220746f206e6f6e20455243373231526560008201527f63656976657220696d706c656d656e7465720000000000000000000000000000602082015250565b6000613008603283611fdc565b915061301382612fac565b604082019050919050565b6000602082019050818103600083015261303781612ffb565b9050919050565b600081519050919050565b600082825260208201905092915050565b60006130658261303e565b61306f8185613049565b935061307f818560208601611fed565b61308881612020565b840191505092915050565b60006080820190506130a86000830187612121565b6130b56020830186612121565b6130c260408301856125da565b81810360608301526130d4818461305a565b905095945050505050565b6000815190506130ee81611f42565b92915050565b60006020828403121561310a57613109611f0c565b5b6000613118848285016130df565b91505092915050565b7f4e487b7100000000000000000000000000000000000000000000000000000000600052601260045260246000fd5b600061315b8261208c565b91506131668361208c565b92508261317657613175613121565b5b828204905092915050565b600061318c8261208c565b91506131978361208c565b9250826131a7576131a6613121565b5b82820690509291505056fea26469706673582212201bb138a38df39c25bb03e93c42f6fc185fb169245d6b01bdf01de3c60561eb7864736f6c634300080a0033",
  "linkReferences": {},
  "deployedLinkReferences": {}
}