{
  "abi": [
    {
      "inputs": [],
      "stateMutability": "nonpayable",
      "type": "constructor"
    },
    {
      "anonymous": false,
      "inputs": [
        {
          "indexed": true,
          "internalType": "address",
          "name": "user_address",
          "type": "address"
        },
        {
          "indexed": true,
          "internalType": "address",
          "name": "phase_address",
          "type": "address"
        },
        {
          "indexed": false,
          "internalType": "string",
          "name": "username",
          "type": "string"
        }
      ],
      "name": "ChangedProfile",
      "type": "event"
    },
    {
      "anonymous": false,
      "inputs": [
        {
          "indexed": true,
          "internalType": "address",
          "name": "user_address",
          "type": "address"
        },
        {
          "indexed": true,
          "internalType": "address",
          "name": "phase_address",
          "type": "address"
        },
        {
          "indexed": false,
          "internalType": "string",
          "name": "username",
          "type": "string"
        }
      ],
      "name": "CreatedProfile",
      "type": "event"
    },
    {
      "anonymous": false,
      "inputs": [
        {
          "indexed": true,
          "internalType": "address",
          "name": "follower",
          "type": "address"
        },
        {
          "indexed": true,
          "internalType": "address",
          "name": "following",
          "type": "address"
        },
        {
          "indexed": true,
          "internalType": "address",
          "name": "phase_profile",
          "type": "address"
        }
      ],
      "name": "Follow",
      "type": "event"
    },
    {
      "anonymous": false,
      "inputs": [
        {
          "indexed": false,
          "internalType": "address",
          "name": "newKing",
          "type": "address"
        }
      ],
      "name": "NewKing",
      "type": "event"
    },
    {
      "anonymous": false,
      "inputs": [
        {
          "indexed": false,
          "internalType": "address",
          "name": "newQueen",
          "type": "address"
        }
      ],
      "name": "NewQueen",
      "type": "event"
    },
    {
      "anonymous": false,
      "inputs": [
        {
          "indexed": true,
          "internalType": "address",
          "name": "unfollower",
          "type": "address"
        },
        {
          "indexed": true,
          "internalType": "address",
          "name": "unfollowing",
          "type": "address"
        },
        {
          "indexed": true,
          "internalType": "address",
          "name": "phase_profile",
          "type": "address"
        }
      ],
      "name": "Unfollow",
      "type": "event"
    },
    {
      "inputs": [
        {
          "internalType": "address",
          "name": "newKing",
          "type": "address"
        }
      ],
      "name": "annointKing",
      "outputs": [],
      "stateMutability": "nonpayable",
      "type": "function"
    },
    {
      "inputs": [
        {
          "internalType": "address",
          "name": "newQueen",
          "type": "address"
        }
      ],
      "name": "annointQueen",
      "outputs": [],
      "stateMutability": "nonpayable",
      "type": "function"
    },
    {
      "inputs": [
        {
          "internalType": "address",
          "name": "_address",
          "type": "address"
        },
        {
          "internalType": "string",
          "name": "username",
          "type": "string"
        },
        {
          "internalType": "string",
          "name": "avatar",
          "type": "string"
        },
        {
          "internalType": "string",
          "name": "banner",
          "type": "string"
        },
        {
          "internalType": "string",
          "name": "bio",
          "type": "string"
        },
        {
          "internalType": "string[][]",
          "name": "links",
          "type": "string[][]"
        }
      ],
      "name": "changeProfile",
      "outputs": [],
      "stateMutability": "nonpayable",
      "type": "function"
    },
    {
      "inputs": [
        {
          "internalType": "address",
          "name": "_address",
          "type": "address"
        },
        {
          "internalType": "string",
          "name": "username",
          "type": "string"
        },
        {
          "internalType": "string",
          "name": "avatar",
          "type": "string"
        },
        {
          "internalType": "string",
          "name": "banner",
          "type": "string"
        },
        {
          "internalType": "string",
          "name": "bio",
          "type": "string"
        },
        {
          "internalType": "string[][]",
          "name": "links",
          "type": "string[][]"
        }
      ],
      "name": "createProfile",
      "outputs": [],
      "stateMutability": "nonpayable",
      "type": "function"
    },
    {
      "inputs": [
        {
          "internalType": "address",
          "name": "follower",
          "type": "address"
        },
        {
          "internalType": "address",
          "name": "profile",
          "type": "address"
        },
        {
          "internalType": "string",
          "name": "metadata",
          "type": "string"
        }
      ],
      "name": "follow",
      "outputs": [],
      "stateMutability": "nonpayable",
      "type": "function"
    },
    {
      "inputs": [
        {
          "internalType": "address",
          "name": "follower",
          "type": "address"
        },
        {
          "internalType": "address",
          "name": "following",
          "type": "address"
        }
      ],
      "name": "isFollowing",
      "outputs": [
        {
          "internalType": "bool",
          "name": "",
          "type": "bool"
        }
      ],
      "stateMutability": "view",
      "type": "function"
    },
    {
      "inputs": [],
      "name": "king",
      "outputs": [
        {
          "internalType": "address",
          "name": "",
          "type": "address"
        }
      ],
      "stateMutability": "view",
      "type": "function"
    },
    {
      "inputs": [
        {
          "internalType": "address",
          "name": "profile",
          "type": "address"
        },
        {
          "internalType": "uint256",
          "name": "token_id",
          "type": "uint256"
        }
      ],
      "name": "ownerOf",
      "outputs": [
        {
          "internalType": "address",
          "name": "",
          "type": "address"
        }
      ],
      "stateMutability": "view",
      "type": "function"
    },
    {
      "inputs": [
        {
          "internalType": "address",
          "name": "",
          "type": "address"
        }
      ],
      "name": "phase",
      "outputs": [
        {
          "internalType": "contract Phase",
          "name": "",
          "type": "address"
        }
      ],
      "stateMutability": "view",
      "type": "function"
    },
    {
      "inputs": [
        {
          "internalType": "address",
          "name": "_address",
          "type": "address"
        }
      ],
      "name": "phaseID",
      "outputs": [
        {
          "internalType": "uint256",
          "name": "token_id",
          "type": "uint256"
        }
      ],
      "stateMutability": "view",
      "type": "function"
    },
    {
      "inputs": [
        {
          "internalType": "uint256",
          "name": "",
          "type": "uint256"
        }
      ],
      "name": "phases",
      "outputs": [
        {
          "internalType": "address",
          "name": "",
          "type": "address"
        }
      ],
      "stateMutability": "view",
      "type": "function"
    },
    {
      "inputs": [],
      "name": "queen",
      "outputs": [
        {
          "internalType": "address",
          "name": "",
          "type": "address"
        }
      ],
      "stateMutability": "view",
      "type": "function"
    },
    {
      "inputs": [
        {
          "internalType": "address",
          "name": "unfollower",
          "type": "address"
        },
        {
          "internalType": "address",
          "name": "profile",
          "type": "address"
        }
      ],
      "name": "removeFollow",
      "outputs": [],
      "stateMutability": "nonpayable",
      "type": "function"
    },
    {
      "inputs": [
        {
          "internalType": "string",
          "name": "",
          "type": "string"
        }
      ],
      "name": "usernames",
      "outputs": [
        {
          "internalType": "address",
          "name": "",
          "type": "address"
        }
      ],
      "stateMutability": "view",
      "type": "function"
    },
    {
      "inputs": [
        {
          "internalType": "address",
          "name": "_address",
          "type": "address"
        }
      ],
      "name": "viewLinks",
      "outputs": [
        {
          "internalType": "string[][]",
          "name": "links",
          "type": "string[][]"
        }
      ],
      "stateMutability": "view",
      "type": "function"
    },
    {
      "inputs": [],
      "name": "viewPhases",
      "outputs": [
        {
          "internalType": "address[]",
          "name": "",
          "type": "address[]"
        }
      ],
      "stateMutability": "view",
      "type": "function"
    },
    {
      "inputs": [
        {
          "internalType": "address",
          "name": "_address",
          "type": "address"
        }
      ],
      "name": "viewProfile",
      "outputs": [
        {
          "internalType": "string[4]",
          "name": "bio_info",
          "type": "string[4]"
        }
      ],
      "stateMutability": "view",
      "type": "function"
    }
  ],
  "bytecode": {
    "object": "0x608060405234801561001057600080fd5b5060008054336001600160a01b031991821681178355600180549092169091556040519081527f6cd8d790853c0b38da6686db770a36ba2c38653bf63c343f3bb93c738c2f89da9060200160405180910390a16040516001600160a01b03821681527f4f83afdba2ebb153ebc1defcc8dc7ba9fc5ad01c30203863693b05807712a62b9060200160405180910390a1506148a2806100af6000396000f3fe60806040523480156200001157600080fd5b5060043610620001215760003560e01c80634b3a2a6a11620000af578063b8150eb2116200007a578063b8150eb214620002d0578063bf937bfc14620002e7578063cc181ca814620002fe578063e74b7fe01462000312578063edbc20a0146200032957600080fd5b80634b3a2a6a146200023157806399ec3a42146200025d5780639d856bdc1462000285578063aaee301f146200029957600080fd5b80632e37eef611620000f05780632e37eef614620001a857806332a13c0114620001bf57806346e0814114620001e557806348792c80146200020b57600080fd5b8063027a3767146200012657806305df5a56146200013f57806308fcef4014620001615780631f29d2dc1462000178575b600080fd5b6200013d620001373660046200102b565b62000340565b005b62000149620004e3565b60405162000158919062001069565b60405180910390f35b6200013d62000172366004620010b8565b62000547565b6200018f6200018936600462001153565b620006f1565b6040516001600160a01b03909116815260200162000158565b6200018f620001b936600462001182565b62000777565b620001d6620001d03660046200119c565b620007a2565b604051620001589190620012bb565b620001fc620001f63660046200119c565b6200082a565b604051620001589190620012d0565b620002226200021c3660046200119c565b620008b3565b60405190815260200162000158565b6200018f620002423660046200119c565b6003602052600090815260409020546001600160a01b031681565b620002746200026e3660046200102b565b62000931565b604051901515815260200162000158565b6001546200018f906001600160a01b031681565b6200018f620002aa3660046200141e565b80516020818301810180516002825292820191909301209152546001600160a01b031681565b6200013d620002e136600462001596565b620009be565b6200013d620002f83660046200119c565b62000c17565b6000546200018f906001600160a01b031681565b6200013d6200032336600462001596565b62000c99565b6200013d6200033a3660046200119c565b62000f1b565b6000546001600160a01b03163314620003765760405162461bcd60e51b81526004016200036d9062001689565b60405180910390fd5b6001600160a01b038181166000908152600360205260408082205490516370a0823160e01b8152858416600482015292169182906370a0823190602401602060405180830381865afa158015620003d1573d6000803e3d6000fd5b505050506040513d601f19601f82011682018060405250810190620003f79190620016ab565b11620004375760405162461bcd60e51b815260206004820152600e60248201526d4e4f545f464f4c4c4f57494e472160901b60448201526064016200036d565b60405163226bf2d160e21b81526001600160a01b0384811660048301528216906389afcb4490602401600060405180830381600087803b1580156200047b57600080fd5b505af115801562000490573d6000803e3d6000fd5b50505050806001600160a01b0316826001600160a01b0316846001600160a01b03167ff03361a4fb660f14ee00aa4d559565931ce88b06192553dbefa6093765d0d7f760405160405180910390a4505050565b606060048054806020026020016040519081016040528092919081815260200182805480156200053d57602002820191906000526020600020905b81546001600160a01b031681526001909101906020018083116200051e575b5050505050905090565b6000546001600160a01b03163314620005745760405162461bcd60e51b81526004016200036d9062001689565b6001600160a01b03838116600090815260036020526040908190205490516370a0823160e01b8152868316600482015291169081906370a0823190602401602060405180830381865afa158015620005d0573d6000803e3d6000fd5b505050506040513d601f19601f82011682018060405250810190620005f69190620016ab565b156200063a5760405162461bcd60e51b8152602060048201526012602482015271414c52454144595f464f4c4c4f57494e472160701b60448201526064016200036d565b60405163d0def52160e01b81526001600160a01b0382169063d0def521906200066c90889087908790600401620016c5565b600060405180830381600087803b1580156200068757600080fd5b505af11580156200069c573d6000803e3d6000fd5b50505050806001600160a01b0316846001600160a01b0316866001600160a01b03167fab0593080333635d8643b7029091e23800fd41ad633feb50250d233e8051d35860405160405180910390a45050505050565b6001600160a01b038281166000908152600360205260408082205490516331a9108f60e11b81526004810185905291921690636352211e90602401602060405180830381865afa1580156200074a573d6000803e3d6000fd5b505050506040513d601f19601f8201168201806040525081019062000770919062001705565b9392505050565b600481815481106200078857600080fd5b6000918252602090912001546001600160a01b0316905081565b6001600160a01b0380821660009081526003602052604080822054815163c1b313c160e01b81529151606094919091169263c1b313c192600480820193918290030181865afa158015620007fa573d6000803e3d6000fd5b505050506040513d6000823e601f3d908101601f1916820160405262000824919081019062001771565b92915050565b6200083462000fca565b6001600160a01b03808316600090815260036020526040808220548151636deb1c7b60e11b8152915193169263dbd638f6926004808401939192918290030181865afa15801562000889573d6000803e3d6000fd5b505050506040513d6000823e601f3d908101601f19168201604052620008249190810190620018ae565b6001600160a01b03808216600090815260036020908152604080832054815163af640d0f60e01b815291519394169263af640d0f926004808401939192918290030181865afa1580156200090b573d6000803e3d6000fd5b505050506040513d601f19601f82011682018060405250810190620008249190620016ab565b6001600160a01b038181166000908152600360205260408082205490516370a0823160e01b8152858416600482015291921690829082906370a0823190602401602060405180830381865afa1580156200098f573d6000803e3d6000fd5b505050506040513d601f19601f82011682018060405250810190620009b59190620016ab565b11949350505050565b6000546001600160a01b03163314620009eb5760405162461bcd60e51b81526004016200036d9062001689565b600085511162000a305760405162461bcd60e51b815260206004820152600f60248201526e454d5054595f555345524e414d452160881b60448201526064016200036d565b6001600160a01b038087166000908152600360205260408082205481516395d89b4160e01b8152915193169260029184916395d89b419160048082019287929091908290030181865afa15801562000a8c573d6000803e3d6000fd5b505050506040513d6000823e601f3d908101601f1916820160405262000ab6919081019062001954565b60405162000ac591906200198d565b90815260405190819003602001812080546001600160a01b03939093166001600160a01b03199093169290921790915560009060029062000b089089906200198d565b908152604051908190036020019020546001600160a01b03161462000b625760405162461bcd60e51b815260206004820152600f60248201526e555345524e414d455f54414b454e2160881b60448201526064016200036d565b60405163052defd960e31b81526001600160a01b0382169063296f7ec89062000b989089908990899089908990600401620019ab565b600060405180830381600087803b15801562000bb357600080fd5b505af115801562000bc8573d6000803e3d6000fd5b505050508660028760405162000bdf91906200198d565b90815260405190819003602001902080546001600160a01b03929092166001600160a01b031990921691909117905550505050505050565b6000546001600160a01b0316331462000c445760405162461bcd60e51b81526004016200036d9062001689565b600080546001600160a01b0319166001600160a01b0383169081179091556040519081527f6cd8d790853c0b38da6686db770a36ba2c38653bf63c343f3bb93c738c2f89da906020015b60405180910390a150565b6000546001600160a01b0316331462000cc65760405162461bcd60e51b81526004016200036d9062001689565b6001600160a01b03868116600090815260036020526040902054161562000d255760405162461bcd60e51b815260206004820152601260248201527150484153455f414c52454144595f4d41444560701b60448201526064016200036d565b600085511162000d6a5760405162461bcd60e51b815260206004820152600f60248201526e454d5054595f555345524e414d452160881b60448201526064016200036d565b60006001600160a01b031660028660405162000d8791906200198d565b908152604051908190036020019020546001600160a01b03161462000de15760405162461bcd60e51b815260206004820152600f60248201526e555345524e414d455f54414b454e2160881b60448201526064016200036d565b600086868686868660405162000df79062000ff2565b62000e089695949392919062001a22565b604051809103906000f08015801562000e25573d6000803e3d6000fd5b506001600160a01b038881166000908152600360205260409081902080546001600160a01b0319169284169290921790915551909150879060029062000e6d9089906200198d565b90815260405190819003602001812080546001600160a01b039384166001600160a01b031991821617909155600480546001810182556000919091527f8a35acfbc15ff81a39ae7d344fd709f28e8600b4aa8c65c6b64bfe7fe36bd19b0180548b851692168217905591831691907f0f6310052d2ac588005e40e349ed01b8ee7bf637b6e21aad6876cd28c541b9ba9062000f0a908a9062001aab565b60405180910390a350505050505050565b6000546001600160a01b031633148062000f3f57506001546001600160a01b031633145b62000f7b5760405162461bcd60e51b815260206004820152600b60248201526a09c9ea8be9a9e9c82a486960ab1b60448201526064016200036d565b600180546001600160a01b0319166001600160a01b0383169081179091556040519081527f4f83afdba2ebb153ebc1defcc8dc7ba9fc5ad01c30203863693b05807712a62b9060200162000c8e565b60405180608001604052806004905b606081526020019060019003908162000fd95790505090565b612dac8062001ac183390190565b6001600160a01b03811681146200101657600080fd5b50565b8035620010268162001000565b919050565b600080604083850312156200103f57600080fd5b82356200104c8162001000565b915060208301356200105e8162001000565b809150509250929050565b6020808252825182820181905260009190848201906040850190845b81811015620010ac5783516001600160a01b03168352928401929184019160010162001085565b50909695505050505050565b60008060008060608587031215620010cf57600080fd5b8435620010dc8162001000565b93506020850135620010ee8162001000565b9250604085013567ffffffffffffffff808211156200110c57600080fd5b818701915087601f8301126200112157600080fd5b8135818111156200113157600080fd5b8860208285010111156200114457600080fd5b95989497505060200194505050565b600080604083850312156200116757600080fd5b8235620011748162001000565b946020939093013593505050565b6000602082840312156200119557600080fd5b5035919050565b600060208284031215620011af57600080fd5b8135620007708162001000565b60005b83811015620011d9578181015183820152602001620011bf565b83811115620011e9576000848401525b50505050565b6000815180845262001209816020860160208601620011bc565b601f01601f19169290920160200192915050565b600081518084526020808501808196506005915083821b81018387016000805b87811015620012ac578484038b5282518051808652908801908886019080891b87018a01855b828110156200129557601f1989830301845262001282828651620011ef565b948c0194938c0193915060010162001263565b509d8a019d9650505092870192506001016200123d565b50919998505050505050505050565b6020815260006200077060208301846200121d565b602080825260009060a0830183820185845b60048110156200131557601f1987850301835262001302848351620011ef565b93509184019190840190600101620012e2565b50919695505050505050565b634e487b7160e01b600052604160045260246000fd5b6040516080810167ffffffffffffffff811182821017156200135d576200135d62001321565b60405290565b604051601f8201601f1916810167ffffffffffffffff811182821017156200138f576200138f62001321565b604052919050565b600067ffffffffffffffff821115620013b457620013b462001321565b50601f01601f191660200190565b600082601f830112620013d457600080fd5b8135620013eb620013e58262001397565b62001363565b8181528460208386010111156200140157600080fd5b816020850160208301376000918101602001919091529392505050565b6000602082840312156200143157600080fd5b813567ffffffffffffffff8111156200144957600080fd5b6200145784828501620013c2565b949350505050565b600067ffffffffffffffff8211156200147c576200147c62001321565b5060051b60200190565b600082601f8301126200149857600080fd5b81356020620014ab620013e5836200145f565b82815260059290921b84018101918181019086841115620014cb57600080fd5b8286015b848110156200158b57803567ffffffffffffffff80821115620014f157600080fd5b818901915089603f8301126200150657600080fd5b8582013562001519620013e5826200145f565b81815260059190911b830160400190878101908c8311156200153a57600080fd5b604085015b8381101562001578578035858111156200155857600080fd5b620015698f6040838a0101620013c2565b8452509189019189016200153f565b50875250505092840192508301620014cf565b509695505050505050565b60008060008060008060c08789031215620015b057600080fd5b620015bb8762001019565b9550602087013567ffffffffffffffff80821115620015d957600080fd5b620015e78a838b01620013c2565b96506040890135915080821115620015fe57600080fd5b6200160c8a838b01620013c2565b955060608901359150808211156200162357600080fd5b620016318a838b01620013c2565b945060808901359150808211156200164857600080fd5b620016568a838b01620013c2565b935060a08901359150808211156200166d57600080fd5b506200167c89828a0162001486565b9150509295509295509295565b6020808252600890820152674e4f545f4b494e4760c01b604082015260600190565b600060208284031215620016be57600080fd5b5051919050565b6001600160a01b03841681526040602082018190528101829052818360608301376000818301606090810191909152601f909201601f1916010192915050565b6000602082840312156200171857600080fd5b8151620007708162001000565b600082601f8301126200173757600080fd5b815162001748620013e58262001397565b8181528460208386010111156200175e57600080fd5b62001457826020830160208701620011bc565b6000602082840312156200178457600080fd5b815167ffffffffffffffff808211156200179d57600080fd5b818401915084601f830112620017b257600080fd5b8151620017c3620013e5826200145f565b8082825260208201915060208360051b860101925087831115620017e657600080fd5b602085015b83811015620018a2578051858111156200180457600080fd5b8601603f81018a136200181657600080fd5b60208101516200182a620013e5826200145f565b81815260059190911b82016040019060208101908c8311156200184c57600080fd5b604084015b838110156200188b5780518a8111156200186a57600080fd5b6200187b8f60408389010162001725565b8452506020928301920162001851565b5086525050602093840193919091019050620017eb565b50979650505050505050565b60006020808385031215620018c257600080fd5b825167ffffffffffffffff80821115620018db57600080fd5b818501915085601f830112620018f057600080fd5b620018fa62001337565b8060808401888111156200190d57600080fd5b845b818110156200194657805185811115620019295760008081fd5b620019378b82890162001725565b8552509286019286016200190f565b509098975050505050505050565b6000602082840312156200196757600080fd5b815167ffffffffffffffff8111156200197f57600080fd5b620014578482850162001725565b60008251620019a1818460208701620011bc565b9190910192915050565b60a081526000620019c060a0830188620011ef565b8281036020840152620019d48188620011ef565b90508281036040840152620019ea8187620011ef565b9050828103606084015262001a008186620011ef565b9050828103608084015262001a1681856200121d565b98975050505050505050565b6001600160a01b038716815260c06020820181905260009062001a4890830188620011ef565b828103604084015262001a5c8188620011ef565b9050828103606084015262001a728187620011ef565b9050828103608084015262001a888186620011ef565b905082810360a084015262001a9e81856200121d565b9998505050505050505050565b602081526000620007706020830184620011ef56fe60a06040526001600a553480156200001657600080fd5b5060405162002dac38038062002dac83398101604081905262000039916200051e565b60408051808201909152600d81526c50686173652050726f66696c6560981b602082015286908660006200006e8382620006a0565b5060016200007d8282620006a0565b505060078054336001600160a01b03199182168117909255600880549091166001600160a01b0385161790556040519081527f6cd8d790853c0b38da6686db770a36ba2c38653bf63c343f3bb93c738c2f89da915060200160405180910390a16040516001600160a01b03821681527f4f83afdba2ebb153ebc1defcc8dc7ba9fc5ad01c30203863693b05807712a62b9060200160405180910390a1506001600160a01b038616608052600b620001358582620006a0565b50600c620001448482620006a0565b50600d620001538382620006a0565b5080516200016990600e90602084019062000176565b505050505050506200076c565b828054828255906000526020600020908101928215620001c8579160200282015b82811115620001c85782518051620001b7918491602090910190620001da565b509160200191906001019062000197565b50620001d692915062000233565b5090565b82805482825590600052602060002090810192821562000225579160200282015b82811115620002255782518290620002149082620006a0565b5091602001919060010190620001fb565b50620001d692915062000254565b80821115620001d65760006200024a828262000275565b5060010162000233565b80821115620001d65760006200026b828262000298565b5060010162000254565b508054600082559060005260206000209081019062000295919062000254565b50565b508054620002a69062000611565b6000825580601f10620002b7575050565b601f0160209004906000526020600020908101906200029591905b80821115620001d65760008155600101620002d2565b80516001600160a01b03811681146200030057600080fd5b919050565b634e487b7160e01b600052604160045260246000fd5b604051601f8201601f191681016001600160401b038111828210171562000346576200034662000305565b604052919050565b600082601f8301126200036057600080fd5b81516001600160401b038111156200037c576200037c62000305565b602062000392601f8301601f191682016200031b565b8281528582848701011115620003a757600080fd5b60005b83811015620003c7578581018301518282018401528201620003aa565b83811115620003d95760008385840101525b5095945050505050565b60006001600160401b03821115620003ff57620003ff62000305565b5060051b60200190565b600082601f8301126200041b57600080fd5b81516020620004346200042e83620003e3565b6200031b565b82815260059290921b840181019181810190868411156200045457600080fd5b8286015b84811015620005135780516001600160401b03808211156200047957600080fd5b818901915089603f8301126200048e57600080fd5b85820151620004a16200042e82620003e3565b81815260059190911b830160400190878101908c831115620004c257600080fd5b604085015b838110156200050057805185811115620004e057600080fd5b620004f18f6040838a01016200034e565b845250918901918901620004c7565b5087525050509284019250830162000458565b509695505050505050565b60008060008060008060c087890312156200053857600080fd5b6200054387620002e8565b60208801519096506001600160401b03808211156200056157600080fd5b6200056f8a838b016200034e565b965060408901519150808211156200058657600080fd5b620005948a838b016200034e565b95506060890151915080821115620005ab57600080fd5b620005b98a838b016200034e565b94506080890151915080821115620005d057600080fd5b620005de8a838b016200034e565b935060a0890151915080821115620005f557600080fd5b506200060489828a0162000409565b9150509295509295509295565b600181811c908216806200062657607f821691505b6020821081036200064757634e487b7160e01b600052602260045260246000fd5b50919050565b601f8211156200069b57600081815260208120601f850160051c81016020861015620006765750805b601f850160051c820191505b81811015620006975782815560010162000682565b5050505b505050565b81516001600160401b03811115620006bc57620006bc62000305565b620006d481620006cd845462000611565b846200064d565b602080601f8311600181146200070c5760008415620006f35750858301515b600019600386901b1c1916600185901b17855562000697565b600085815260208120601f198616915b828110156200073d578886015182559484019460019091019084016200071c565b50858210156200075c5787850151600019600388901b60f8161c191681555b5050505050600190811b01905550565b60805161262462000788600039600061033701526126246000f3fe608060405234801561001057600080fd5b50600436106101da5760003560e01c80638da5cb5b11610104578063c1b313c1116100a2578063dbd638f611610071578063dbd638f614610404578063e985e9c514610419578063edbc20a014610455578063f516b4221461046857600080fd5b8063c1b313c1146103b6578063c87b56dd146103cb578063cc181ca8146103de578063d0def521146103f157600080fd5b8063a22cb465116100de578063a22cb46514610374578063af640d0f14610387578063b88d4fde14610390578063bf937bfc146103a357600080fd5b80638da5cb5b1461033257806395d89b41146103595780639d856bdc1461036157600080fd5b806323b872dd1161017c5780636352211e1161014b5780636352211e146102f157806370a0823114610304578063723a21301461031757806389afcb441461031f57600080fd5b806323b872dd146102b0578063296f7ec8146102c357806342842e0e146102d65780635aef7de6146102e957600080fd5b8063095ea7b3116101b8578063095ea7b3146102475780630d80fefd1461025c5780631eb7caba1461026f57806321ecfa8d1461029d57600080fd5b806301ffc9a7146101df57806306fdde0314610207578063081812fc1461021c575b600080fd5b6101f26101ed366004611c37565b610470565b60405190151581526020015b60405180910390f35b61020f6104c2565b6040516101fe9190611cac565b61022f61022a366004611cbf565b610554565b6040516001600160a01b0390911681526020016101fe565b61025a610255366004611cf4565b61057b565b005b61020f61026a366004611cbf565b610695565b61028f61027d366004611d1e565b60096020526000908152604090205481565b6040519081526020016101fe565b61020f6102ab366004611d39565b610741565b61025a6102be366004611d5b565b610785565b61025a6102d1366004611f7d565b6107b6565b61025a6102e4366004611d5b565b610844565b61020f61085f565b61022f6102ff366004611cbf565b61086c565b61028f610312366004611d1e565b6108cc565b61020f610952565b61025a61032d366004611d1e565b61095f565b61022f7f000000000000000000000000000000000000000000000000000000000000000081565b61020f6109e5565b60085461022f906001600160a01b031681565b61025a61038236600461204f565b6109f4565b61028f600a5481565b61025a61039e36600461208b565b610a03565b61025a6103b1366004611d1e565b610a3b565b6103be610ad5565b6040516101fe9190612107565b61020f6103d9366004611cbf565b610bf5565b60075461022f906001600160a01b031681565b61025a6103ff3660046121ac565b610d05565b61040c610e0d565b6040516101fe919061222f565b6101f261042736600461227c565b6001600160a01b03918216600090815260056020908152604080832093909416825291909152205460ff1690565b61025a610463366004611d1e565b611063565b61020f6110f0565b60006001600160e01b031982166380ac58cd60e01b14806104a157506001600160e01b03198216635b5e139f60e01b145b806104bc57506301ffc9a760e01b6001600160e01b03198316145b92915050565b6060600080546104d1906122af565b80601f01602080910402602001604051908101604052809291908181526020018280546104fd906122af565b801561054a5780601f1061051f5761010080835404028352916020019161054a565b820191906000526020600020905b81548152906001019060200180831161052d57829003601f168201915b5050505050905090565b600061055f826110fd565b506000908152600460205260409020546001600160a01b031690565b60006105868261086c565b9050806001600160a01b0316836001600160a01b0316036105f85760405162461bcd60e51b815260206004820152602160248201527f4552433732313a20617070726f76616c20746f2063757272656e74206f776e656044820152603960f91b60648201526084015b60405180910390fd5b336001600160a01b038216148061061457506106148133610427565b6106865760405162461bcd60e51b815260206004820152603d60248201527f4552433732313a20617070726f76652063616c6c6572206973206e6f7420746f60448201527f6b656e206f776e6572206f7220617070726f76656420666f7220616c6c00000060648201526084016105ef565b610690838361115f565b505050565b600f81815481106106a557600080fd5b9060005260206000200160009150905080546106c0906122af565b80601f01602080910402602001604051908101604052809291908181526020018280546106ec906122af565b80156107395780601f1061070e57610100808354040283529160200191610739565b820191906000526020600020905b81548152906001019060200180831161071c57829003601f168201915b505050505081565b600e828154811061075157600080fd5b90600052602060002001818154811061076957600080fd5b906000526020600020016000915091505080546106c0906122af565b61078f33826111cd565b6107ab5760405162461bcd60e51b81526004016105ef906122e9565b61069083838361124b565b6007546001600160a01b03163314806107d957506008546001600160a01b031633145b6107f55760405162461bcd60e51b81526004016105ef90612336565b600161080186826123a1565b50600b61080e85826123a1565b50600c61081b84826123a1565b50600d61082883826123a1565b50805161083c90600e906020840190611aa4565b505050505050565b61069083838360405180602001604052806000815250610a03565b600b80546106c0906122af565b6000818152600260205260408120546001600160a01b0316806104bc5760405162461bcd60e51b8152602060048201526018602482015277115490cdcc8c4e881a5b9d985b1a59081d1bdad95b88125160421b60448201526064016105ef565b60006001600160a01b0382166109365760405162461bcd60e51b815260206004820152602960248201527f4552433732313a2061646472657373207a65726f206973206e6f7420612076616044820152683634b21037bbb732b960b91b60648201526084016105ef565b506001600160a01b031660009081526003602052604090205490565b600c80546106c0906122af565b600061096a826108cc565b116109a85760405162461bcd60e51b815260206004820152600e60248201526d4e4f545f464f4c4c4f57494e472160901b60448201526064016105ef565b6001600160a01b0381166000908152600960205260409020546109ca81611401565b506001600160a01b0316600090815260096020526040812055565b6060600180546104d1906122af565b6109ff338383611441565b5050565b610a0d33836111cd565b610a295760405162461bcd60e51b81526004016105ef906122e9565b610a358484848461150f565b50505050565b6007546001600160a01b03163314610a805760405162461bcd60e51b81526020600482015260086024820152674e4f545f4b494e4760c01b60448201526064016105ef565b600780546001600160a01b0319166001600160a01b0383169081179091556040519081527f6cd8d790853c0b38da6686db770a36ba2c38653bf63c343f3bb93c738c2f89da906020015b60405180910390a150565b6060600e805480602002602001604051908101604052809291908181526020016000905b82821015610bec57838290600052602060002001805480602002602001604051908101604052809291908181526020016000905b82821015610bd9578382906000526020600020018054610b4c906122af565b80601f0160208091040260200160405190810160405280929190818152602001828054610b78906122af565b8015610bc55780601f10610b9a57610100808354040283529160200191610bc5565b820191906000526020600020905b815481529060010190602001808311610ba857829003601f168201915b505050505081526020019060010190610b2d565b5050505081526020019060010190610af9565b50505050905090565b6060610c00826110fd565b60008281526006602052604081208054610c19906122af565b80601f0160208091040260200160405190810160405280929190818152602001828054610c45906122af565b8015610c925780601f10610c6757610100808354040283529160200191610c92565b820191906000526020600020905b815481529060010190602001808311610c7557829003601f168201915b505050505090506000610cb060408051602081019091526000815290565b90508051600003610cc2575092915050565b815115610cf4578082604051602001610cdc929190612461565b60405160208183030381529060405292505050919050565b610cfd84611542565b949350505050565b6007546001600160a01b0316331480610d2857506008546001600160a01b031633145b610d445760405162461bcd60e51b81526004016105ef90612336565b610d4d836108cc565b15610d8d5760405162461bcd60e51b815260206004820152601060248201526f414c52454144595f464f4c4c4f57532160801b60448201526064016105ef565b610d9983600a546115b6565b610ddb600a5483838080601f01602080910402602001604051908101604052809392919081815260200183838082843760009201919091525061170492505050565b600a80546001600160a01b038516600090815260096020526040812082905590610e04906124a6565b90915550505050565b610e15611b01565b604051806080016040528060018054610e2d906122af565b80601f0160208091040260200160405190810160405280929190818152602001828054610e59906122af565b8015610ea65780601f10610e7b57610100808354040283529160200191610ea6565b820191906000526020600020905b815481529060010190602001808311610e8957829003601f168201915b50505050508152602001600b8054610ebd906122af565b80601f0160208091040260200160405190810160405280929190818152602001828054610ee9906122af565b8015610f365780601f10610f0b57610100808354040283529160200191610f36565b820191906000526020600020905b815481529060010190602001808311610f1957829003601f168201915b50505050508152602001600d8054610f4d906122af565b80601f0160208091040260200160405190810160405280929190818152602001828054610f79906122af565b8015610fc65780601f10610f9b57610100808354040283529160200191610fc6565b820191906000526020600020905b815481529060010190602001808311610fa957829003601f168201915b50505050508152602001600c8054610fdd906122af565b80601f0160208091040260200160405190810160405280929190818152602001828054611009906122af565b80156110565780601f1061102b57610100808354040283529160200191611056565b820191906000526020600020905b81548152906001019060200180831161103957829003601f168201915b5050505050815250905090565b6007546001600160a01b031633148061108657506008546001600160a01b031633145b6110a25760405162461bcd60e51b81526004016105ef90612336565b600880546001600160a01b0319166001600160a01b0383169081179091556040519081527f4f83afdba2ebb153ebc1defcc8dc7ba9fc5ad01c30203863693b05807712a62b90602001610aca565b600d80546106c0906122af565b6000818152600260205260409020546001600160a01b031661115c5760405162461bcd60e51b8152602060048201526018602482015277115490cdcc8c4e881a5b9d985b1a59081d1bdad95b88125160421b60448201526064016105ef565b50565b600081815260046020526040902080546001600160a01b0319166001600160a01b03841690811790915581906111948261086c565b6001600160a01b03167f8c5be1e5ebec7d5bd14f71427d1e84f3dd0314c0f7b2291e5b200ac8c7c3b92560405160405180910390a45050565b6000806111d98361086c565b9050806001600160a01b0316846001600160a01b0316148061122057506001600160a01b0380821660009081526005602090815260408083209388168352929052205460ff165b80610cfd5750836001600160a01b031661123984610554565b6001600160a01b031614949350505050565b826001600160a01b031661125e8261086c565b6001600160a01b0316146112c25760405162461bcd60e51b815260206004820152602560248201527f4552433732313a207472616e736665722066726f6d20696e636f72726563742060448201526437bbb732b960d91b60648201526084016105ef565b6001600160a01b0382166113245760405162461bcd60e51b8152602060048201526024808201527f4552433732313a207472616e7366657220746f20746865207a65726f206164646044820152637265737360e01b60648201526084016105ef565b61132f838383611797565b600081815260046020908152604080832080546001600160a01b03191690556001600160a01b0386168352600390915281208054600192906113729084906124bf565b90915550506001600160a01b03821660009081526003602052604081208054600192906113a09084906124d6565b909155505060008181526002602052604080822080546001600160a01b0319166001600160a01b0386811691821790925591518493918716917fddf252ad1be2c89b69c2b068fc378daa952ba7f163c4a11628f55a4df523b3ef91a4505050565b61140a816117ec565b60008181526006602052604090208054611423906122af565b15905061115c57600081815260066020526040812061115c91611b28565b816001600160a01b0316836001600160a01b0316036114a25760405162461bcd60e51b815260206004820152601960248201527f4552433732313a20617070726f766520746f2063616c6c65720000000000000060448201526064016105ef565b6001600160a01b03838116600081815260056020908152604080832094871680845294825291829020805460ff191686151590811790915591519182527f17307eab39ab6107e8899845ad3d59bd9653f200f220920489ca2b5937696c31910160405180910390a3505050565b61151a84848461124b565b611526848484846118a2565b610a355760405162461bcd60e51b81526004016105ef906124ee565b606061154d826110fd565b600061156460408051602081019091526000815290565b9050600081511161158457604051806020016040528060008152506115af565b8061158e846119a3565b60405160200161159f929190612461565b6040516020818303038152906040525b9392505050565b6001600160a01b03821661160c5760405162461bcd60e51b815260206004820181905260248201527f4552433732313a206d696e7420746f20746865207a65726f206164647265737360448201526064016105ef565b6000818152600260205260409020546001600160a01b0316156116715760405162461bcd60e51b815260206004820152601c60248201527f4552433732313a20746f6b656e20616c7265616479206d696e7465640000000060448201526064016105ef565b61167d60008383611797565b6001600160a01b03821660009081526003602052604081208054600192906116a69084906124d6565b909155505060008181526002602052604080822080546001600160a01b0319166001600160a01b03861690811790915590518392907fddf252ad1be2c89b69c2b068fc378daa952ba7f163c4a11628f55a4df523b3ef908290a45050565b6000828152600260205260409020546001600160a01b031661177f5760405162461bcd60e51b815260206004820152602e60248201527f45524337323155524953746f726167653a2055524920736574206f66206e6f6e60448201526d32bc34b9ba32b73a103a37b5b2b760911b60648201526084016105ef565b600082815260066020526040902061069082826123a1565b6001600160a01b03821615806117b457506001600160a01b038316155b6106905760405162461bcd60e51b815260206004820152600960248201526814d3d5531093d5539160ba1b60448201526064016105ef565b60006117f78261086c565b905061180581600084611797565b600082815260046020908152604080832080546001600160a01b03191690556001600160a01b0384168352600390915281208054600192906118489084906124bf565b909155505060008281526002602052604080822080546001600160a01b0319169055518391906001600160a01b038416907fddf252ad1be2c89b69c2b068fc378daa952ba7f163c4a11628f55a4df523b3ef908390a45050565b60006001600160a01b0384163b1561199857604051630a85bd0160e11b81526001600160a01b0385169063150b7a02906118e6903390899088908890600401612540565b6020604051808303816000875af1925050508015611921575060408051601f3d908101601f1916820190925261191e9181019061257d565b60015b61197e573d80801561194f576040519150601f19603f3d011682016040523d82523d6000602084013e611954565b606091505b5080516000036119765760405162461bcd60e51b81526004016105ef906124ee565b805181602001fd5b6001600160e01b031916630a85bd0160e11b149050610cfd565b506001949350505050565b6060816000036119ca5750506040805180820190915260018152600360fc1b602082015290565b8160005b81156119f457806119de816124a6565b91506119ed9050600a836125b0565b91506119ce565b60008167ffffffffffffffff811115611a0f57611a0f611d97565b6040519080825280601f01601f191660200182016040528015611a39576020820181803683370190505b5090505b8415610cfd57611a4e6001836124bf565b9150611a5b600a866125c4565b611a669060306124d6565b60f81b818381518110611a7b57611a7b6125d8565b60200101906001600160f81b031916908160001a905350611a9d600a866125b0565b9450611a3d565b828054828255906000526020600020908101928215611af1579160200282015b82811115611af15782518051611ae1918491602090910190611b62565b5091602001919060010190611ac4565b50611afd929150611bb4565b5090565b60405180608001604052806004905b6060815260200190600190039081611b105790505090565b508054611b34906122af565b6000825580601f10611b44575050565b601f01602090049060005260206000209081019061115c9190611bd1565b828054828255906000526020600020908101928215611ba8579160200282015b82811115611ba85782518290611b9890826123a1565b5091602001919060010190611b82565b50611afd929150611be6565b80821115611afd576000611bc88282611c03565b50600101611bb4565b5b80821115611afd5760008155600101611bd2565b80821115611afd576000611bfa8282611b28565b50600101611be6565b508054600082559060005260206000209081019061115c9190611be6565b6001600160e01b03198116811461115c57600080fd5b600060208284031215611c4957600080fd5b81356115af81611c21565b60005b83811015611c6f578181015183820152602001611c57565b83811115610a355750506000910152565b60008151808452611c98816020860160208601611c54565b601f01601f19169290920160200192915050565b6020815260006115af6020830184611c80565b600060208284031215611cd157600080fd5b5035919050565b80356001600160a01b0381168114611cef57600080fd5b919050565b60008060408385031215611d0757600080fd5b611d1083611cd8565b946020939093013593505050565b600060208284031215611d3057600080fd5b6115af82611cd8565b60008060408385031215611d4c57600080fd5b50508035926020909101359150565b600080600060608486031215611d7057600080fd5b611d7984611cd8565b9250611d8760208501611cd8565b9150604084013590509250925092565b634e487b7160e01b600052604160045260246000fd5b604051601f8201601f1916810167ffffffffffffffff81118282101715611dd657611dd6611d97565b604052919050565b600067ffffffffffffffff831115611df857611df8611d97565b611e0b601f8401601f1916602001611dad565b9050828152838383011115611e1f57600080fd5b828260208301376000602084830101529392505050565b600082601f830112611e4757600080fd5b6115af83833560208501611dde565b600067ffffffffffffffff821115611e7057611e70611d97565b5060051b60200190565b600082601f830112611e8b57600080fd5b81356020611ea0611e9b83611e56565b611dad565b82815260059290921b84018101918181019086841115611ebf57600080fd5b8286015b84811015611f7257803567ffffffffffffffff80821115611ee357600080fd5b818901915089603f830112611ef757600080fd5b85820135611f07611e9b82611e56565b81815260059190911b830160400190878101908c831115611f2757600080fd5b604085015b83811015611f6057803585811115611f4357600080fd5b611f528f6040838a0101611e36565b845250918901918901611f2c565b50875250505092840192508301611ec3565b509695505050505050565b600080600080600060a08688031215611f9557600080fd5b853567ffffffffffffffff80821115611fad57600080fd5b611fb989838a01611e36565b96506020880135915080821115611fcf57600080fd5b611fdb89838a01611e36565b95506040880135915080821115611ff157600080fd5b611ffd89838a01611e36565b9450606088013591508082111561201357600080fd5b61201f89838a01611e36565b9350608088013591508082111561203557600080fd5b5061204288828901611e7a565b9150509295509295909350565b6000806040838503121561206257600080fd5b61206b83611cd8565b91506020830135801515811461208057600080fd5b809150509250929050565b600080600080608085870312156120a157600080fd5b6120aa85611cd8565b93506120b860208601611cd8565b925060408501359150606085013567ffffffffffffffff8111156120db57600080fd5b8501601f810187136120ec57600080fd5b6120fb87823560208401611dde565b91505092959194509250565b6000602080830181845280855180835260408601915060059250604081841b8701018488016000805b8481101561219d57898403603f19018652825180518086529089019089860190808a1b87018b01855b8281101561218757601f19898303018452612175828651611c80565b948d0194938d01939150600101612159565b50988b0198965050509288019250600101612130565b50919998505050505050505050565b6000806000604084860312156121c157600080fd5b6121ca84611cd8565b9250602084013567ffffffffffffffff808211156121e757600080fd5b818601915086601f8301126121fb57600080fd5b81358181111561220a57600080fd5b87602082850101111561221c57600080fd5b6020830194508093505050509250925092565b602080825260009060a0830183820185845b600481101561227057601f1987850301835261225e848351611c80565b93509184019190840190600101612241565b50919695505050505050565b6000806040838503121561228f57600080fd5b61229883611cd8565b91506122a660208401611cd8565b90509250929050565b600181811c908216806122c357607f821691505b6020821081036122e357634e487b7160e01b600052602260045260246000fd5b50919050565b6020808252602d908201527f4552433732313a2063616c6c6572206973206e6f7420746f6b656e206f776e6560408201526c1c881bdc88185c1c1c9bdd9959609a1b606082015260800190565b6020808252600b908201526a09c9ea8be9a9e9c82a486960ab1b604082015260600190565b601f82111561069057600081815260208120601f850160051c810160208610156123825750805b601f850160051c820191505b8181101561083c5782815560010161238e565b815167ffffffffffffffff8111156123bb576123bb611d97565b6123cf816123c984546122af565b8461235b565b602080601f83116001811461240457600084156123ec5750858301515b600019600386901b1c1916600185901b17855561083c565b600085815260208120601f198616915b8281101561243357888601518255948401946001909101908401612414565b50858210156124515787850151600019600388901b60f8161c191681555b5050505050600190811b01905550565b60008351612473818460208801611c54565b835190830190612487818360208801611c54565b01949350505050565b634e487b7160e01b600052601160045260246000fd5b6000600182016124b8576124b8612490565b5060010190565b6000828210156124d1576124d1612490565b500390565b600082198211156124e9576124e9612490565b500190565b60208082526032908201527f4552433732313a207472616e7366657220746f206e6f6e20455243373231526560408201527131b2b4bb32b91034b6b83632b6b2b73a32b960711b606082015260800190565b6001600160a01b038581168252841660208201526040810183905260806060820181905260009061257390830184611c80565b9695505050505050565b60006020828403121561258f57600080fd5b81516115af81611c21565b634e487b7160e01b600052601260045260246000fd5b6000826125bf576125bf61259a565b500490565b6000826125d3576125d361259a565b500690565b634e487b7160e01b600052603260045260246000fdfea2646970667358221220f16256d17ce84713dce952fd06be4c03fde9eb9eea92bfe30285a2f2721ade8364736f6c634300080f0033a2646970667358221220e2f599e2efbba4b215a4c1caf8617c5f49ca043ae9b3c1f95925409fda11c84364736f6c634300080f0033",
    "linkReferences": {}
  },
  "methodIdentifiers": {
    "annointKing(address)": "bf937bfc",
    "annointQueen(address)": "edbc20a0",
    "changeProfile(address,string,string,string,string,string[][])": "b8150eb2",
    "createProfile(address,string,string,string,string,string[][])": "e74b7fe0",
    "follow(address,address,string)": "08fcef40",
    "isFollowing(address,address)": "99ec3a42",
    "king()": "cc181ca8",
    "ownerOf(address,uint256)": "1f29d2dc",
    "phase(address)": "4b3a2a6a",
    "phaseID(address)": "48792c80",
    "phases(uint256)": "2e37eef6",
    "queen()": "9d856bdc",
    "removeFollow(address,address)": "027a3767",
    "usernames(string)": "aaee301f",
    "viewLinks(address)": "32a13c01",
    "viewPhases()": "05df5a56",
    "viewProfile(address)": "46e08141"
  },
  "id": 15
}